:10000000758920758DFD759850D28E78FF79FF80A7
:100010001380FCB8FF02F822F9228A993099FDC2B8
:100020009931732275A0FE30A45F30A55E30A661C1
:1000300030A76675A0FD30A44A30A54930A64830E7
:10004000A75575A0FB30A43530A53430A63330A7B2
:100050004475A0F730A44630A52130A63E30A73322
:1000600080AD75F00A842430F5993099FDC299E588
:10007000F02430F5993099FDC299228022802A809F
:1000800032803A8042804A8052805A74081113802C
:100090005E8066806E8074807A211B2123216574C6
:1000A0000011137A30111A010F740111137A3111F2
:1000B0001A010F740211137A32111A010F7403110D
:1000C000137A33111A010F740411137A34111A01BF
:1000D0000F740511137A35111A010F740611137A72
:1000E00036111A010F740711137A37111A010F74A0
:1000F0000811137A38111A010F740911137A391182
:100100001A010F7B2B7A2B111A010F7B2D7A2D11DF
:100110001A010F7B2A7A2A111A010F7B2F7A2F11CD
:100120001A010F7A3D111A3129E8BB2B0729F599DD
:0E0130001162010FBB2D0799F5991162010FA5
:10013E00BB2A0989F0A4F5991162010FBB2F12B9E0
:10014E0000067A45111A010F89F084F599116201A2
:10015E000FF5991162010F78FF79FF7AFE111A7A65
:10016E0001111A010F7D027EFF7FFFDFFEDEFADD39
:02017E00F62267
:00000001FF
