:03000000020800F3
:0C080000787FE4F6D8FD758125020847DA
:1009E500180E00C000F900A400B000990092008222
:1009F50000F800800090008800C7020C0000020883
:060A05000000020A0000DF
:040A0C007F647E0085
:100A1000D3EF9400EE94004007EF1F70F31E80F0B8
:010A200022B3
:100A2100758901758CFC758A18D2A9D2AFD28C2236
:03000B0002099057
:10099000C0E0C0D0050BE50B7002050A640A450AE9
:1009A00070380509E50970020508D39463E5086409
:1009B000809480401F050DE50D7002050C75080040
:1009C000750900D39463E50C648094804006750C2F
:1009D00000750D00750A00750B00758CFC758A1882
:0509E000D0D0D0E03290
:10091700AE0CAF0D7C007D0A12088CEF25E0240E8B
:10092700F808E6F580D2A0120A0CC2A0AE0CAF0DF3
:100937007C007D0A12088CED25E0240EF808E6F508
:1009470080C287D2A1120A0CC2A1D287AE08AF0912
:100957007C007D0A12088CEF25E0240EF808E6F5E6
:1009670080D2A2120A0CC2A2AE08AF097C007D0A8F
:1009770012088CED25E0240EF808E6F580C287D230
:08098700A3120A0CC2A3D287DF
:01098F002245
:080A3100120A2112091780FBD3
:10080C00020A31E493A3F8E493A34003F68001F2C7
:10081C0008DFF48029E493A3F85407240CC8C333ED
:10082C00C4540F4420C8834004F456800146F6DFBC
:10083C00E4800B01020408102040809009E5E47E5E
:10084C00019360BCA3FF543F30E509541FFEE493B1
:10085C00A360010ECF54C025E060A840B8E493A378
:10086C00FAE493A3F8E493A3C8C582C8CAC583CAA3
:10087C00F0A3C8C582C8CAC583CADFE9DEE780BE5B
:010A0B0000EA
:10088C00C2D5EC30E709B2D5E4C39DFDE49CFCEE87
:10089C0030E715B2D5E4C39FFFE49EFE1208C2C335
:1008AC00E49DFDE49CFC80031208C230D507C3E430
:0608BC009FFFE49EFE22F6
:1008C200BC000BBE0029EF8DF084FFADF022E4CC1A
:1008D200F875F008EF2FFFEE33FEEC33FCEE9DECE3
:1008E200984005FCEE9DFE0FD5F0E9E4CEFD22ED29
:1008F200F8F5F0EE8420D21CFEADF075F008EF2F73
:10090200FFED33FD4007985006D5F0F222C398FD63
:050912000FD5F0EA2200
:00000001FF
